:020000040000fa
:080000000802040000000000ea
:020000040000fa
:10040000b402040000000000e2020400000000004a
:100410008f922000807f22000001880000000000f1
:10042000050007000c0007000e1702000000000086
:100430000040da000000fe004440a90080172000c0
:100440000000e0000300320000002000a00188004e
:100450004440a80000000600a02122000100200066
:100460001600370062004000e080480091018800db
:100470009001ba0062004000e080480091018800cd
:100480009002ba0062004000e08048000002eb00e9
:100490006028e10005003a008301e900070033000d
:1004a000038009000059eb00040037006128e100d7
:1004b000010032000082eb00050007009101880076
:1004c0001001ba000200e000e6ff3a00000005005b
:1004d000910188008002780062004000e0804800be
:1004e0003559ba008301e900080032002559ba00e5
:1004f0008301e900050032000400e000f4ff32004f
:1005000015d9ba008301e900f1ff3a0000000600a6
:1005100080007800010037000000e8001004e000cf
:10052000fdff3a0001005000000006008001780045
:1005300000017800010037000201e8001204e00029
:10054000fdff3a00020037000201e8008100e800e8
:1005500011407800004978000004e000faff3a00fa
:100560000300780000000600881f7800020478006d
:1005700029000700080040004f0478000000060032
:100580000000fa00881f7800000478003fb9970047
:10059000ea81570080007800402b200027000700e8
:1005a000800078000000e000020035000040eb0011
:1005b00080707c00010078004f0478000080fa0011
:1005c00000000600900178000200e00002003a00fe
:1005d0000308e900050037008080eb001304e00009
:1005e000020032000308e8009300fb0001007800dd
:1005f000000006000200fa00f0bf9f003fb997001c
:10060000ea8157008f80e900202e2000c3000700f8
:100610000080fa00000006000002780080017800e7
:1006200001003700b159780002004200808f51006c
:10063000fcff3a0004007800000006006200fa00a7
:10064000889fbe008a9fbe000004be00020578009d
:100650008300780060f92f000f0040007701070049
:1006600088979f0099979f000000eb00a09f9f0034
:100670009a4578000b80fb000000ea00cf04de0002
:100680000904e90050c2b30080cf550001003200d8
:10069000090478000800e0000b003400080178002d
:1006a0008a0078001f9097008f9197000300010047
:1006b00090979f000000e000930032002f98970071
:1006c00008004000a09f9f000905450050c2b300ec
:1006d00080cf5500040032000b04e000e4ff3a0034
:1006e0002f989700890037000000eb00809f9f0043
:1006f000f0979f00e0979f00d0979f00c0979f00c2
:10070000b0979f00c09f9f000900370020902000f5
:100710000080500000004000618f2000e0807800e1
:100720004f98970001007000c09f9f000a05e800e5
:100730001a4478008800fb00209020004401070044
:10074000800078000000e000f0ff3a00a0c2b30093
:10075000804f54000e003a00bf8897000180e900e6
:10076000b08f9f0090007800b19f9f000100e000d3
:1007700005003d000100ea00b09f9f004f989700e0
:100780000020a000c09f9f000a05e800100037006d
:10079000b19f9f0009003700bf989700f0ff270026
:1007a000808f5000040032006a08b9000000410048
:1007b00003004000b09f9f000a05e8001a01fb00fb
:1007c00003fd2f0003004100e90f5000f2ff360047
:1007d000e0c2b3009a4f1000040032000080eb002a
:1007e000909f9f008a0478001c0037008a04e8006c
:1007f000a0c2b300994f100007003a00bf889700cd
:100800000180e900b08f9f0010007800909f9f004a
:100810008a84e800110037000000eb00909f9f00e1
:10082000090037009f989700f0ff2700808f500045
:10083000040032006a08b9000000410003004000d3
:10084000909f9f008904e8001901fb0003fd2f0021
:1008500003004100e90f5000f2ff36001944780010
:100860008800fb0000922000f90007000000e00073
:1008700002003a0000447800010037008904e800d3
:10088000a87f9f0080c6b300804f540004003a0048
:1008900066405000994f14000700320008003700ee
:1008a000c0c6b300804f540005003a00994f1400b1
:1008b00003003a0065404000a07f9f008904e800e3
:1008c0000905e800c8fb2f000f04440060f92f0061
:1008d0000f0040008085e800880178001901fb00c6
:1008e000800078000b007800e10007000000e000c5
:1008f00005003a00880078000b0078002602070007
:100900000000e0005aff3d000080eb004f05be00f4
:100910004f04be000080fa00000006001200fa003a
:10092000889fbe008a9fbe008c1f7800020478005a
:10093000a0b79f00b1b79f00830078007880570070
:10094000be0007000000eb00e0b79f00d8b79f0093
:1009500000067800dfb49700194578000a80fb0094
:100960000000ea00cf05de000a00fb00d402070009
:100970000000e0001a0032006fb097000000e800ad
:10098000e0b79f00120020008000eb003fb097000e
:10099000afb197000300010000047800c80207000f
:1009a000000178000000e000f3ff3a006fb097000c
:1009b000e10f4400070032000000e900e0b79f00ab
:1009c000880078003fb09700afb1970003000100a6
:1009d000220037000000e900e0b79f001f00370049
:1009e0000b04e90050c2b300804f550019003200db
:1009f0000b047800170037006fb097000000e80084
:100a0000e0b79f00120020008000eb003fb097008d
:100a1000afb1970003000100800078001900fb00cf
:100a2000808f50000a003200e18f40007d003200cc
:100a30006fb097000000e900e0b79f000001eb00f5
:100a40003fb09700afb19700030001007500370079
:100a50008904e8000804e900e7ff3b005fb0970065
:100a60008b004000d1b79f0050c2b300804f5500ab
:100a7000030032000a04e000b6ff3a0069003700c4
:100a8000114178008041eb00a0c2b300804f5100bb
:100a900003003a000100e800d0b79f0082417800cf
:100aa000a3f79f000000eb0080bf9f000b00370002
:100ab0008fb89700f0ff2700808f500004003200ad
:100ac0006a08b900000041000300400080bf9f0099
:100ad0005fb097000000e800d0b79f00dfb4970038
:100ae000194478000801fb0003fd2f0003004100ba
:100af000e90f5000eeff36008800fb004091200017
:100b0000530007000000e00002003a0000447800b3
:100b1000020037000900e800d0b79f00b8f79f0037
:100b200080c6b300804f540005003a00dfb0970044
:100b300066405000914f1400080032000a00370050
:100b4000c0c6b300804f540007003a00dfb09700e2
:100b5000914f140004003a0065404000b0f79f0038
:100b60000100e800d0b79f005fb097009000fb0045
:100b7000b0912000360007000000e00019003a00a4
:100b80006fb097000000e800e0b79f00120020005f
:100b90008000eb003fb09700afb197000300010069
:100ba0000004780046020700000178000000e00021
:100bb000f3ff3a006fb09700e10f440007003200e6
:100bc0000000e900e0b79f00880078003fb0970080
:100bd000afb1970003000100020037000000e900f8
:100be000e0b79f007c8057003d0207000000e00056
:100bf00003003c000c00e00009003200090037004f
:100c00004ff097000004e000010032000c06e800fd
:100c10005fb097000000e800d0b79f004dff37009d
:100c2000000678000c0078004f0678004f05be00e3
:100c30004f04be000080fa00000006000200fa0027
:100c4000f1bf9f00010878000080fa000000060054
:100c5000040037001004e00001003a000000050025
:100c60000000e80090cf1000faff3a0000000600f4
:100c7000889fbe008a1f7800000478000102780077
:100c80008244780003057800e0c6b300804f51002d
:100c9000d700320015003c006b405000804f5100df
:100ca000240032000a003c0070405000804f510088
:100cb0001401320065404000804f51007600320040
:100cc00050c2b300804f510027013a002301370082
:100cd00040c6b300804f51001b0032006540400009
:100ce000804f510020013a001700370030c7b30091
:100cf000804f51000301320007003c006440500067
:100d0000804f5100640032000040e800804f5100e5
:100d100015013a00ec00370050c7b300804f510076
:100d20005d00320063404000804f51000e013a00e8
:100d3000590037009180e900010a7800780090009e
:100d400011f079000e01370028619000c0c6b30091
:100d5000804f51000a003a001400780064015000ee
:100d6000020a78001200be004f88de00cf80de004d
:100d70001202be00000378008003780015003700df
:100d800010c7b300804f510002003a009400780071
:100d90000400370094007800a0c6b300804f5100d3
:100da00005003a0068805000000a78003002be005a
:100db0002003be00070037000180e900000a780028
:100dc0001000780000027800cfa2de000503780052
:100dd00086037800049cbe000694be00a8609000c4
:100de00080c6b30080cf50000e00320020c6b30092
:100df00080cf500005003a000400fb00cf80de00e9
:100e000001017800820178000a00370040c7b30072
:100e100080cf5000030032006640400080cf500079
:100e200006003a0004007800cf80de00010178005f
:100e300082017800009cbe000294be003800be0013
:100e40002801be00e00f5000e08f5800e00f59006d
:100e5000e08f590003003d0078009000d1c2b3003c
:100e60000a003700081090000018a30003003200a9
:100e700078009000b1c2b300040037000008a3005e
:100e8000560032007800900001c2b30001707d006e
:100e90000000e8005000370028619000c0c6b30091
:100ea000804f510007003a009400780064805000a1
:100eb000000a78001002be000003eb0086037800f1
:100ec0001500370010c7b300804f510002003a00f0
:100ed000940078000400370094007800a0c6b300a6
:100ee000804f510005003a0068805000000a7800e9
:100ef0003002be002003be00070037000180e90079
:100f0000000a780010007800000278000500200038
:100f10000600200007002000049cbe000694be00ce
:100f2000a860900080c6b30080cf50000e00320051
:100f300020c6b30080cf500005003a000480fb00bb
:100f40000100200002002000030020000a003700fa
:100f500040c7b30080cf500003003200664040001d
:100f600080cf500006003a00040078000100200005
:100f70000200200003002000009cbe000294be007e
:100f8000081090000038a300140032003800be00a2
:100f90002801be00e00f5000e08f5800e00f59001c
:100fa000e08f59000d00320080c7b30080cf54009d
:100fb0000300320080c5b30080cf540007003a0020
:100fc0007800900001c3b30001707d008000e8004c
:100fd00089707d000080e80070049800780090001f
:100fe0000000450060049800894078004200370006
:100ff000a8609000c0c6b30080cf5000250032002a
:101000000a003c006440500080cf500028003200ad
:1010100000c0e80080cf500014003200684050004b
:1010200080cf500022003a000a00370040c7b300ca
:1010300080cf50001e0032006640400080cf50003c
:101040001b0032006940500080cf500018003a0069
:10105000060037001480e900000a780010007800cc
:10106000485c900008487800470037001480e90089
:10107000000a78001002780068089000cf80de0037
:101080000101780082017800009abe000292be0041
:101090003d0037001480e900000a78001001780054
:1010a00068089000cf80de000089be00360037005f
:1010b0001480e900000a780010007800680c9000a5
:1010c00008087800300037001180e90080087800b7
:1010d00010007800cf80de000101780082017800e6
:1010e000009cbe000294be00780090000000450005
:1010f0006004980081c7b300080078008f010700e2
:10110000210037001480e900000a7800900178007f
:1011100063049800580990000200e00003003d00bd
:1011200003007800fafc07000a0037008000eb009b
:101130000300780034020700800078000000e0001f
:10114000030032006800900000805000010037006a
:1011500058089000100c98000b00370078009000a1
:1011600002707d0006003700780090008000450086
:101170000904e00001003a0059c2b3008948780030
:101180000000e800700498000000eb004f057800b4
:101190004f04be00000006000400fa00889fbe0055
:1011a0008a9fbe008c1f780000047800010678003a
:1011b00070089000f800900001005000880890002e
:1011c000010050009808900001005000a80890000d
:1011d00001005000b808900001005000c8089000bd
:1011e0008105500000022200a0bf9f0000032300e1
:1011f00090bf9f00081090000028a30018003a003c
:101200000b00e000160034008b047800090578001c
:10121000e28f5400020036002a002000020037004e
:101220000900e0000b003400c80190000a017800ba
:10123000ec80570058009000030001005004980013
:101240000000e00096003200680890000a004000ac
:10125000600c98008a8454004240a900ebff3c00d7
:10126000780190000200e0000b003400c8019000fb
:101270008c00780058009000030001005004980092
:101280000000e0008600320068089000f80090003e
:1012900001004000600c9800880c90000900e000fc
:1012a0001500340009057800e28f54000200360072
:1012b0002a002000020037000900e0000b00340083
:1012c000c80190000a017800ee8057005800900095
:1012d00003000100500498000000e000700032009c
:1012e000680890000a004000600c98008a8454004e
:1012f0004240a900ebff3c00180990000200e0000a
:101300000b003400c8019000e800900058009000e5
:1013100003000100500498000000e000600032006b
:10132000680890009808900001004000600c980048
:10133000a80c90000900e0001500340009057800b1
:10134000e28f5400020036002a002000020037001d
:101350000900e0000b003400c80190000a01780089
:10136000ee805700580090000300010050049800e0
:101370000000e0004a003200680890000a004000c7
:10138000600c98008a8454004240a900ebff3c00a6
:10139000380990000200e0000d003400e8009000e1
:1013a0001808900080804000c8019000580090000c
:1013b00003000100500498000000e00038003200f3
:1013c00068089000b808900001004000600c980088
:1013d000c80c90000900e0001500340009057800f1
:1013e000e28f5400020036002a002000020037007d
:1013f0000900e0000b003400c80190000a017800e9
:10140000ee8057005800900003000100500498003f
:101410000000e00022003200680890000a0040004e
:10142000600c98008a8454004240a900ebff3c0005
:10143000081090000028a3001b0032000b00e00001
:10144000190034008b04780009057800e28f5400fd
:10145000020036002a002000020037000900e000e8
:101460000b003400c80190000a017800ec8057009e
:101470005800900003000100500498000000e000b4
:1014800007003200680890000a004000600c9800d5
:101490008a8454004240a90003003400eaff370068
:1014a0000080eb00010037000000eb004f067800e1
:1014b0004f05be004f04be000080fa000000060089
:1014c0006900e100040035006d00e1000300340014
:1014d0000002b1000100320000000500100005000c
:1014e000881f7800000478000040eb00005498004a
:1014f000380090009040780090c6b30080cf500034
:101500002a00320013003c007140500080cf500090
:101510002600320005003c0050c2b30080cf5000ce
:101520006400320030c5b3001b00370030c6b30082
:1015300080cf50001b0032000040e80080cf5000f8
:101540001a0032006940500080cf50006e003a000f
:101550007300370000c7b30080cf500007003c0085
:101560000040e90080cf500010003d000040e9003d
:1015700080cf500064003a000f00370050c7b3001e
:1015800080cf5000090032006340400080cf5000ff
:10159000060032006540500080cf5000430032000a
:1015a000590037008000eb005e003700080078002b
:1015b0001f0107005f003700684890000004e0004a
:1015c0005b003a00f8489000c0c6b30080cf5000de
:1015d000270032000a003c006440500080cf5000d9
:1015e0002b00320000c0e80080cf50001500320010
:1015f0006840500080cf500025003a000a003700b4
:1016000040c7b30080cf5000210032006640400048
:1016100080cf50001e0032006940500080cf500043
:101620001b003a0007003700280090000080e90006
:101630002004980010007800084c900008487800ba
:101640003b003700280090000080e900200498004b
:101650001002780048009000cf80de000101780081
:1016600082017800009abe000292be00300037006e
:10167000280090000080e900200498001001780004
:1016800048009000cf80de000089be0028003700af
:10169000280090000080e9002004980010007800e5
:1016a000480490000808780021003700110020004d
:1016b0001c003700480090000000e800400498003b
:1016c00098017800120020008000eb0018009000c4
:1016d000030001008000780050022000808f50003d
:1016e0001300320048009000e18f400008003200f3
:1016f0000000e90040049800980178000001eb0028
:1017000018009000030001000000eb000900370002
:101710000000e9004004980001007800050037004f
:101720008080eb00080078001b02070001003700f2
:10173000100020004f047800000006006f02b00087
:10174000889fbe008a9fbe008c9fbe008e1f7800bf
:1017500000067800508e200080bf9f0080c5b30037
:1017600080cf50000700320082002000f2b79f00b7
:10177000438d200083bf9f007740400080cf500002
:101780000a00320080c7b30080cf5000050032004d
:10179000a4002000f4b79f0080c5b30080cf5000a4
:1017a00002003a0000012000f0b79f003c04be0098
:1017b0002c05be0040c6b30080cf500003003200ad
:1017c0006540400080cf50000b003a00e00f54000d
:1017d000e08f5c00e00f5d00e08f5d0006003d00e3
:1017e0006000b8006011b8000804500089845800f7
:1017f0000a0559008b855900e00f5400e08f5c000a
:10180000e00f5d00e08f5d0004003a005c0890008e
:101810008d0120000000e0000c003200ffb09700b6
:1018200001027800cfa2de0005037800860378006d
:101830000800be000a01be009b0407000fba970013
:1018400064407800d0e79f007d0120007fb09700c2
:1018500000027800cfa2de0005037800860378003e
:101860000800be000a01be0088040700009ebe00fa
:101870000296be000d00e900e1fc2f008f804000c1
:10188000008740001a0037007fb1970002027800fd
:10189000cfa2de0005037800860378003c00be007e
:1018a0002c01be00840407000205be000004be0037
:1018b0008d06e900ffb1970003027800cfa2de0099
:1018c00005037800860378000800be000a01be0008
:1018d000020507003fb29700000052008fb8970042
:1018e00060cf7800089ebe000a96be000e07e90091
:1018f0003c00be002c01be00b0b79f00c1b79f00e6
:10190000d2b79f00e3b79f00e00f5000e08f580070
:10191000e00f5900e08f5900020034000d00e00094
:10192000d9ff3c00ffb09700e88f500010003a004c
:101930000c1090000038a3000d003200f78f560005
:1019400006003e00e2fc2f000d014100e2c07f00d6
:1019500000c3b30080cf5000050032008d06e900bf
:1019600000c3b300e3fc2f008d81410080f17f00b4
:1019700078811600120e98006c009000e3fc2f0096
:101980008f8141008d80410023fb07001c099000de
:101990005c089000800f510006003d0002005000de
:1019a000000e98000c1090000040a1000016980056
:1019b0000f0037000000e0000d003d000c1090000b
:1019c00074006000f00f500009003a007c0890009d
:1019d000fc009000010050008c08900001005000b5
:1019e000020050004240a90001003400000e98009f
:1019f0004f0778004f06be004f05be004f04be00e3
:101a00006f02b10000000600820178000400370078
:101a100090cf1000050032000000e8008301e900cb
:101a20000300e000faff3a000000eb0000000600af
:101a30002f02b000889fbe008a9fbe008c9fbe0010
:101a40008e1f780080047800600090000000e000a5
:101a500001003c00f0ff27000000e900d0049800de
:101a6000c90090000c0033000100e800c004980099
:101a700099017800120020008000eb00190090000e
:101a80000300010000057800b0022000800f55001f
:101a900006003a000b0037000100e800c00498007f
:101aa0002cfd2f000f0646001b003700d00220003f
:101ab000800f5500030032002cfd2f000f0646005a
:101ac0001600370030fd2f000f044000aad79f00fa
:101ad000590090000000e900d0049800c90090006f
:101ae0000a0033000100e800c00498009901780062
:101af000120020008000eb0019009000030001009c
:101b00000005780008067800040037000100e800ae
:101b1000c0049800080678000085eb00588b200070
:101b2000390090009000fb000800780048fc070096
:101b300008005000e18a200060c478008805fb009e
:101b400000032000800f550033003a005900900038
:101b50000000e900d0049800c90090000c00330098
:101b60000100e800c00498009901780012002000ec
:101b70008000eb00190090000300010000057800d0
:101b800080072000800f550005003a00070037004d
:101b90000100e800c00498000085eb001b0037003e
:101ba00080052000800f550018003a000804e0006e
:101bb00002003200f04f54001d003a00590090001e
:101bc0000000e900d0049800c9009000090033002b
:101bd0000100e800c004980099017800120020007c
:101be0008000eb0019009000030001000005780060
:101bf000030037000100e800c00498000085eb00f6
:101c00000047eb000b012000110037000804e00042
:101c1000b8003200060037000047eb000804e0007f
:101c200004003a00ad002000084778001c0037008f
:101c30001ec0b300ad002000ea4f5400180032006f
:101c4000e88f550002003a008b0678001400370038
:101c50006d01200012003700590090000000e900db
:101c6000d0049800c9009000090033000100e8008a
:101c7000c004980099017800120020008000eb0059
:101c800019009000030001000005780003003700f0
:101c90000100e800c00498000085eb001ec0b300fe
:101ca00000032000800f5500ebff32000e04e0001f
:101cb00018003200005e7800160037006f80570071
:101cc000800f5600010031000a5e78005900900034
:101cd0000000e900d0049800c9009000090033001a
:101ce0000100e800c004980099017800120020006b
:101cf0008000eb001900900003000100000578004f
:101d0000030037000100e800c00498000085eb00e4
:101d10001ec0b300e10f4500070032000d0178003e
:101d20008a007800d08b200037ff07000000e00019
:101d3000e2ff3a0066003700490090000000e90029
:101d4000c00498000e04e00008003a0020fd2f00b7
:101d50000f004000800f56005b003a00e10f450085
:101d600059003a008a00780065003700004eeb0009
:101d700069489000110020000004e00060003a0073
:101d8000390090009040780040c6b30080cf5000ea
:101d9000030032006540400080cf50000a003a0046
:101da0000b0178008000eb0020fd2f000f004000a9
:101db000690107000203be000002be0010c0b300ac
:101dc000805498000d0037000b0178008000eb0074
:101dd00020fd2f000f004000b90107000203be00e4
:101de0000002be0010c0b30080549800b9009000fb
:101df00000c7b300914f10002c003200f94890004a
:101e0000c0c6b30080cf5000220032000a003c0060
:101e10006440500080cf50002400320000c0e80031
:101e200080cf5000140032006840500080cf500036
:101e30001e003a000a00370040c7b30080cf5000b0
:101e40001a0032006640400080cf50001700320078
:101e50006940500080cf500014003a00060037005f
:101e6000290090000080e900a0049800100078008c
:101e70000448780012003700290090000080e90033
:101e8000a0049800100078000498be000690be00e0
:101e90000b003700290090000080e900a0049800a2
:101ea000100078000488be0005003700290090006b
:101eb0000080e900a0049800100078000408780071
:101ec000110020000e0037008000eb000c003700ee
:101ed000490090000000e900c004980099017800d2
:101ee0000001eb008a007800190090000300010057
:101ef00094ff37001ec0b3008b00200052ff370054
:101f0000010078004f0778004f06be004f05be0065
:101f10004f04be002f02b10000000600000278004e
:101f2000110037008402e80094417800d0c2b30069
:101f3000954f100008003a0081cf510003003e0089
:101f40002440900080cf500012003600630242000f
:101f5000630151000400370081cf51000d003200b1
:101f60000201e90005027800e20f5100edff3e009a
:101f7000840178000300370093cf10000500320081
:101f80008301e80002004200808f5100faff3a000e
:101f90000000050010000500ee874700889fbe0086
:101fa0008a9fbe008c9fbe008e1f780000047800c0
:101fb000810678000000eb00d0b79f00f848900041
:101fc000c0c6b30080cf500002003a0011002000cc
:101fd000d1b79f000d00e00024003d0038019000c3
:101fe0000200e80030049800904078000040eb00c8
:101ff00080f79f00e0c5b30080cf500003003a0097
:102000000280e8003004980081f79f00b804900037
:102010000901e800d0c5b300994f1000010032005b
:1020200009017800d10520000200780008fb0700b4
:10203000000778008000eb000000e000bf003200e5
:1020400009055000e20f5500080034000a81e9003c
:102050000900e800d10220006bfe070011c0b300a8
:10206000c1ef9f000000e00002003a000040eb00da
:10207000c0ef9f00680090000000e00004003c00fa
:10208000f0ff27000d00e00001003a0010002000e2
:1020900050049800684890000004e0000d003a00e9
:1020a00028009000dfb097000100e000050032003a
:1020b0000080e9002004980010007800c0b79f005d
:1020c000040037000080e900200498001000780028
:1020d000f0b79f008045eb00610037000d00e00085
:1020e0000300340009007800f5fc070020003700e9
:1020f0000d00e000200032004fe897000004e000ef
:102100000d003a008ff097000104e00005003a004e
:102110000a01780089007800380090003afe070034
:102120000c0037000a017800890078003800900020
:1021300035fe07000e0037000ff097000004e000a6
:1021400007003a000a017800890078003800900002
:1021500072ff07000000e00007003a006e00370041
:102160000a01780089007800380090006bff0700b2
:102170000000e00068003a00dfb097000100e000d6
:1021800009003a00684890000004e00033003a007b
:102190007fb0970009587800f0b79f0010c0b300d7
:1021a000005498002d003700e9e79f000900fb006c
:1021b0008005fb0001003200100020008004780040
:1021c0001c0020000000e00017003a006fe09700bc
:1021d0000004e00004003a007a805700ccf80700c1
:1021e0008004e800100037000c06e9007a00560071
:1021f000e0c07f0048019000e1cf400008003200bd
:102200000200e90040049800980178000001eb000a
:102210008100fb001800900003000100020037005d
:102220000200e900400498008c8f5400eeff350056
:10223000684890000004e00005003a00cfb0970025
:102240008b187800c1b79f0010c0b30000549800ed
:10225000680090000000e900600498002bc0b30003
:10226000580090000000e9005004980048019000d8
:102270000b0033000200e800400498009801780049
:10228000120020008000eb00180090000300010005
:1022900080047800e10f400090ff3a000200370010
:1022a0000200e80040049800480090000000e900a7
:1022b000400498000d00e00002003200e2cf55001b
:1022c000040032000b00fb008080eb001b0032009a
:1022d0000f003700684890000004e00009003a0051
:1022e0005fb097000000e00003003200cfb097001d
:1022f0008008eb0003003700afe897007fb097003d
:10230000014878000d00e00001003d003e04980007
:102310001100200009003700480090000000e9008b
:1023200040049800980178000001eb0089007800d3
:102330001800900003000100deff37000100780064
:102340004f0778004f06be004f05be004f04be0089
:10235000ef00b100000006000200fa00889fbe00f6
:102360008a9fbe008c1f78008005780001057800e8
:10237000020678000100e00001003a006c85570079
:102380000b047800010037000804e8009844780046
:102390000900fb004afc07000000e000faff3a00d9
:1023a000d0c2b30080cf54000500320000c0e90065
:1023b00080cf5400020032008044780001003700d2
:1023c0000804e8000c0178008a0078000800780012
:1023d0003b0007000203be000002be009a0f54003b
:1023e00001003a000b0d78009a8f550005003a0065
:1023f000e00f5200e08f5a00e00f5b00e08f5b00bf
:1024000014003a00b0c2b30080cf540006003a0076
:10241000e00f5200e08f5a00e00f5b00e08f5b009e
:1024200020003d000b003700d0c2b30080cf540025
:102430001c003a006000b8000200200003002800e1
:102440000020e10001a8e10002b0e10003b8e100d2
:102450000e00360020022000904888006b404000ab
:1024600080cf540004003a006000b8000200200051
:10247000030028000d003700f0ff2f00f1ff2f00b0
:10248000f2ff2f00f3ff2700080037006000b800bc
:102490006011b800040250008582580006035900fc
:1024a000878359000400be000601be004f06780075
:1024b0004f05be004f04be000080fa000000060079
:1024c000fc874700889fbe008a9fbe008c9fbe008d
:1024d0008e1f78000007780081067800820478005b
:1024e00000047800010037000804e800184678006e
:1024f0000c00fb00f2fb07000000e000faff3a00ce
:10250000d0c2b300804f56000500320000c0e90081
:10251000804f56000200320000467800010037006c
:102520000804e8000900e00005003500e18f5400d0
:102530000300320040022000808f54000400340069
:102540000d00e000b00032008e0e7800ae003700c3
:102550000900e0000e003400f08f54001a003a0029
:1025600000c3b300984f100016003a009840900046
:1025700080c7b30080cf50000300320080c5b30095
:1025800080cf50000f003a000884e8000e003700aa
:10259000a900200000c3b300984f10000a003a00c1
:1025a0009840900080c7b30080cf500004003200f4
:1025b0008900200080c5b30080cf500002003a009f
:1025c0000884e800090120000805780001003700b0
:1025d0000a05e80000c3b3009a4f1000fcff320068
:1025e0008a0578006022b8006033b8002600370002
:1025f0009088200080c0500081ef9f000902780081
:10260000cfa2de0005037800860378000fb09700a4
:102610009fb097002fb19700bfb19700af0107009f
:10262000d0b79f00e1b79f00f2b79f0083bf9f0024
:102630000fe897000002fb00cfa2de000503780040
:10264000860378008b05e8000fb097009fb09700d5
:102650002fb19700bfb19700c0af9f00d1af9f00cf
:10266000e2af9f00f3af9f005fb09700efb097001d
:102670007fb197008fb997000002420081824a0023
:1026800002034b0083834b0084b79f0095b79f00e4
:10269000a6b79f00b7b79f001b00fb0070000700a4
:1026a000800078000901780090882000d6fc07009f
:1026b000800078000000e000cdff3a008b0f54004e
:1026c0000a003a000d00e0004f0032008e0e780044
:1026d0006022b8006033b80084b79f0095b79f00b0
:1026e000a6b79f00b7b79f004d0037008a805500fe
:1026f00040862000694078000000fb000080500008
:102700002c0033004240a90020003c008fea9700d3
:102710000500fb00cf80de00010178008201780017
:102720000fb297009fb297002fb39700bfb39700e7
:102730000000520081805a0002015b0083815b002f
:102740000020e10001a8e10002b0e10003b8e100cf
:102750000e00390009027800cfa2de0005037800e0
:1027600086037800c90007004faa9700dfaa9700e8
:102770006fab9700ffab97000400e1000588e10014
:102780000690e1000798e1000a00320020022000d4
:1027900090488800f0ff2f00f1ff2f000001be00dd
:1027a00080b79f0091b79f00a2b79f00b3b79f006b
:1027b00011003700d0c2b300804f56000e003a001f
:1027c0006000b8006011b8000fb297009fb2970088
:1027d0002fb39700bfb397000402500085825800c2
:1027e000060359008783590084b79f0095b79f005f
:1027f000a6b79f00b7b79f000d00e00008003200a9
:102800008b0e7800060037006000b8006011b80039
:1028100080b79f0091b79f00a2b79f00b3b79f00fa
:102820000fb097009fb097002fb19700bfb19700ee
:102830004f0778004f06be004f05be004f04be0094
:10284000cf01b10000000600804880000000e000d9
:10285000010032000000010020912000000006006d
:10286000800078001104b100030035009101b1002f
:1028700001003c000050a00000000600881f780006
:10288000000478005001be004000be00000042007d
:1028900081804a0002014b0083814b00009cbe00f6
:1028a0000294be000400e1000588e1000690e1000a
:1028b0000798e10002003100680044001008e800b9
:1028c0004f04780000000600f4874700889fbe0090
:1028d0008a9fbe008c9fbe008e1f78000205be003e
:1028e0000004be00d4b79f00e5b79f00f6b79f0075
:1028f00087bf9f000000eb00c0b79f00b0b79f00ec
:10290000a0b79f0090b79f0080b79f000d042000e4
:10291000bfb097004fb09700000140000000e000fa
:1029200014003d004f08de0000007100c0b79f009a
:10293000ad00070001003d0012002000b0000700bc
:1029400001003d0012002000b500070001003d001d
:1029500012002000ba000700be000700feff3a0088
:10296000c2000700c80007000f004000c3ff0700b7
:10297000270037004f08de0000067100ccb79f002b
:102980009900070001003d00120020009c00070094
:1029900001003d0012002000a100070001003d00e1
:1029a00012002000a6000700aa000700feff3a0060
:1029b000ae0007000fb297009fb297002fb39700a9
:1029c000bfb39700b60007000000520081805a0094
:1029d00002015b0083815b0080b79f0091b79f007d
:1029e000a2b79f00b3b79f000007eb00ac00070041
:1029f0000020e10001a8e10002b0e10003b8e1001d
:102a0000010031001e0020000e005600c0b79f00dc
:102a10004fb297000400e0000700350010002000ce
:102a2000010020006011b800080470008984700063
:102a30000a0571008b8571008d06e900b4ff3a002c
:102a40000400e00003003d008f0007000f0040007d
:102a50008aff07004fa897000000e00004003a003a
:102a60000fb497009fb497002fb59700bfb597009c
:102a7000970007004f0778004f06be004f05be00c5
:102a80004f04be004f01b10000000600881f78000f
:102a900018002000881f78008bff07008f87e9004f
:102aa0004f04780000000600801feb0086ff07003f
:102ab0008f87e90000000600889fbe008a9fbe0045
:102ac0008c1f78007b00070005003d002f000700e9
:102ad00007003d003d0007000006eb000400370042
:102ae0003f00070002003d00300007001c002000ee
:102af00077000700e5ff07000203be000002be00ea
:102b00000c00e00001003200280007000400be00b5
:102b10000601be004f0678004f05be004f04be0000
:102b200000000600889fbe008a9fbe008c1f7800b0
:102b30006000070003003d001400070006003d0090
:102b4000040037002600070003003d006000b800c5
:102b50006011b8001d0007005d000700d2ff0700ec
:102b60000203be000002be000c00e00001003200c3
:102b70000e0007000400be000601be004f067800ec
:102b80004f05be004f04be00000006006000b80004
:102b90006011b80008045000898458000a055900e3
:102ba0008b8559001c002000030037006000b8002e
:102bb0006011b80005003700e00f5200e08f5a00a6
:102bc000e00f5b00e08f5b00000006000402500095
:102bd00085825800060359008783590000000600cb
:102be0000006eb00f4ff37000180400090b79f0023
:102bf0000001eb008fb097000100e000000006002c
:102c00000200700090b79f000180400080b79f00d5
:102c10000001eb00ffa897000100e00000000600a3
:102c20000200700080b79f0001804000f0af9f005d
:102c30000001eb00efa897000100e0000000060093
:102c400002007000f0af9f000182400020000700ea
:102c5000f50305008301d1000281d3008180d300f8
:102c60000080d3008502e900000006000002720027
:102c7000e4af9f000804440089844c000a054d001d
:102c80008b854d00000006003fb29700cfb2970041
:102c90005fb39700efb3970000fe2f00000006001f
:102ca0003fb09700cfb097005fb19700efb19700aa
:102cb000000006000205be000004be00e00f500048
:102cc000e08f5800e00f5900e08f59000000060027
:102cd0000800be000a01be0000000600889fbe007a
:102ce0008a9fbe008c1f78000205be000004be0053
:102cf0000006eb00e00f5000e08f5800e00f590095
:102d0000e08f590007003d006000b8006011b80076
:102d100008045000898458000a0559008b85590021
:102d20001c002000e00f5200e08f5a00e00f5b0013
:102d3000e08f5b0002003d000f0007000c00a200c6
:102d40000800be000a01be00120007000203be0018
:102d50000002be000c00e000010032000600070087
:102d60000400be000601be004f0678004f05be00fd
:102d70004f04be00000006006000b8006011b800fb
:102d800004025000858258000603590087835900c9
:102d900000000600889fbe008a9fbe008c9fbe0078
:102da0000404b8000506b8008904460060854e009a
:102db0000606b8000a054600e0854e000706b80082
:102dc0008b054600040eb800890446000a854e00b3
:102dd000e0854d00050eb8000a0546008b854e00c3
:102de000060eb8008b0546000416b8000a0546001a
:102df0008b854e000516b8008b054600041eb800f2
:102e00008b0546000800be000a01be004f06be004a
:102e10004f05be004f04be0000000600e40bfa00a0
:102e2000881f78000000eb00600798000000eb00ae
:102e3000500798000000eb00400798000000eb00ee
:102e4000300798000000eb0020079800e0af20005a
:102e500080004700100020008008780000b02000ab
:102e600080004700500020008008780020b020003b
:102e7000800047000000eb008008780040b0200090
:102e800080004700100020008008780060b020001b
:102e900080004700e0152a0007000900b0187800fc
:102ea0000101b1000001b100e9030700d6030700ea
:102eb000dc030700c2030700fa0407000000370024
:102ec0000000eb00100798000a0037000000eb003c
:102ed000000f7800010037001e0fe800b01220003c
:102ee0009e0f1000fcff34001e0090000000e80060
:102ef000100798009e009000f07c2000808f50000a
:102f0000f2ff3400d5c2bf0060488000e10f5000de
:102f100013003a000000eb00704888000000eb004e
:102f20006048880040b020008000470020b02000aa
:102f30000001470000b0200080024700e0af200001
:102f40000003470060b02000000047000102780045
:102f500082017800050178008600780024020700cd
:102f6000514880006e00900080805000e0af20004b
:102f70000000470010007800808f5000910035005d
:102f80002e04070080b120008000470060b12000bf
:102f9000000047005804070060b020000000470010
:102fa00010007800e10f500008003a002e01900058
:102fb00060b120000000470090017800ee0047005b
:102fc00002004100010040000308780060b02000ca
:102fd0000000470010009000e10f500009003a0087
:102fe0002e01900080b12000000047009001780081
:102ff000610d20008e804000020041000100400071
:103000000308780060b02000000047002000900016
:10301000e10f500009003a002e049000400020000b
:103020009903070000017800e11920008e8040001c
:1030300008004400010040000208780060b0200051
:103040000000470030009000e10f500009003a00f6
:103050002e049000500020008b0307000001780030
:10306000612620008e8040000800440001004000de
:103070000208780060b02000000047004000900087
:10308000e10f500010003a0020b02000000047007f
:10309000100078000000e0000b003a002e019000c4
:1030a000d4c2bf000080fb004600de00614060002b
:1030b0008081fb00e13220008e8040000200410050
:1030c000010040000308780060b0200000004700c5
:1030d00050009000e10f50000f003a0020b0200097
:1030e00000004700100078000000e0000a003a00ed
:1030f0002e019000d4c2bf000080fb004700de001c
:103100008081fb00613f20008e8040000200410072
:10311000010040000308780060b020000000470074
:1031200060009000e10f50000f003a0040b0200016
:103130000000470010007800e10f50000a003a003c
:10314000ae019000c2c2bf000080fb004700de005d
:103150000081fb00e04b200080004700038041001d
:10316000010040000208780060b020000000470025
:1031700070009000e10f50000d003a0020b02000d8
:103180000000470010007800e10f500008003a00ee
:103190002e049000530207000001780060582000c0
:1031a0008000470008004400010040000208780049
:1031b0002e0090000000e800200798005048800092
:1031c0006007980000b020000000470090007800e1
:1031d0002e009000810f500039ff3a000000eb00f4
:1031e00030079800e064200080004700b00720000e
:1031f000800878000000eb00500798002c01370091
:10320000de00900060b02000000147000180400017
:1032100060007900e10f500022013a003e0090006a
:10322000e10f50000a003a00e0642000000447006b
:10323000e064200000004700b5f40700800044006f
:10324000c0c2b300804878000040eb009040980076
:103250005e009000e40f5000090032005e00900014
:10326000e50f5000060032005e009000e60f5000af
:10327000030032005e009000e70f500051003a005a
:103280005e009000e60f500011003a0060a320009d
:1032900000004700000178007042240021742200e1
:1032a0000089be0064014100a0b325000009780038
:1032b0000281e8000040eb000049780060a3200094
:1032c00080004700e06420000000470097f40700fa
:1032d0005e009000e70f500011003a0060a320004c
:1032e0000000470000017800704224006175220050
:1032f0000089be0064014100a0b3250000097800e8
:103300000281e8000040eb000049780060a3200043
:1033100080004700e06420000000470083f40700bd
:103320005e009000e40f500011003a0060a32000fe
:103330000000470000017800704224006173220001
:103340000089be0064014100a0b325000009780097
:103350000281e8000040eb000049780060a32000f3
:1033600080004700e0642000000047006ff4070081
:103370005e009000e50f500021003a0060a320009d
:1033800000004700000178007042240071732200a1
:103390000089be0064014100a0b325000009780047
:1033a0000281e8000040eb000049780060a32000a3
:1033b00080004700e0642000000047005bf4070045
:1033c0000f0037005e0090008080e80060a32000be
:1033d00000014700811f7800e0162a00801f780056
:1033e0000200780066f40700e487570060a320001d
:1033f00080004700e0642000000047004bf4070015
:103400005e0090000081e80021be20008e80400018
:103410008208780020be20000e00400010007800d6
:10342000e50f50004400320021be20008e80400095
:1034300091007800e58f500010003c0022be200073
:103440000e01410012017800e30f51002800320004
:1034500020be20000e00400010007800e30f500056
:103460002c003c0021be20008e804000910078009e
:10347000e28f5000160032005b00370022be2000b1
:103480000e01410012017800e70f51003c003200ac
:1034900020be20000e00400010007800e70f500012
:1034a0002e00350021be20008e8040009100780063
:1034b000e88f50003b00320022be20000e01410088
:1034c00012017800e90f51003f003200460037003a
:1034d000a0b12000800047006e0047006300090093
:1034e000b0187800810cb100800cb1003e003700ac
:1034f000a0b1200080004700600d20000e004000b9
:1035000063000900b0187800810cb100800cb10094
:1035100035003700a0b1200080004700e0192000ee
:103520000e00400063000900b0187800810cb10063
:10353000800cb1002c003700a0b1200080004700b3
:10354000602620000e00400063000900b0187800db
:10355000810cb100800cb10023003700a0b1200025
:1035600080004700e03220000e00400063000900a8
:10357000b0187800810cb100800cb1001a0037003f
:10358000a0b1200080004700603f20000e004000f6
:1035900063000900b0187800810cb100800cb10004
:1035a00011003700a0b1200080004700e04b200050
:1035b0000000470063000900b0187800810cb100da
:1035c000800cb10008003700a0b120008000470047
:1035d000605820000000470063000900b018780020
:1035e000810cb100800cb1000000eb004007980096
:1035f00020003700ce009000a0b12000000147005d
:1036000001804000e0007900a0a9200000014700ef
:10361000811f780060172a00801f78000200780060
:10362000d7f30700e4875700a0a9200080004700d7
:10363000e064200000004700bcf3070000b0200059
:1036400000004700100078008000e9004e00900064
:10365000808f500004003400e06420000000470028
:1036600091172a00b1f307004e0090000000e80017
:103670004007980000b0200000004700900078004c
:103680004e009000810f5000daff3500e06420000a
:1036900000004700b1172a00a4f307001000200023
:1036a000300798005e0090000000e8005007980086
:1036b0005e009000e70f5000d1fe3400e06420006f
:1036c00000004700d1172a0098f30700e0642000ab
:1036d00000004700290207000000eb005007980097
:1036e0003a0037005e009000ee0047000000400006
:1036f000810040000000eb00800878005e00900030
:10370000610d20008e8040000000400081004000dc
:103710000000eb00800878005e009000e1192000b6
:103720008e80400000004000810040000000eb005f
:10373000800878005e009000612620008e804000a6
:1037400000004000810040000000eb00800878008d
:103750005e009000e13220008e80400000004000ba
:10376000810040000000eb00800878005e009000bf
:10377000613f20008e80400000004000810040003a
:103780000000eb0080087800de009000e04b200095
:103790000001470001804000820040000000eb0073
:1037a00080087800de00900060582000000147008b
:1037b00001804000820040000000eb00800878009b
:1037c0005e0090000000e8005007980000b0200064
:1037d00000004700900078005e009000810f5000cc
:1037e000c0ff35000000eb0020079800b4fd370053
:1037f0000c00fa00000f78001107980022079800cb
:10380000330798004407980002c8bf000000fb007f
:103810005007980020062000de009000808f5000a6
:103820006c00320020062000de009000808f5000e7
:1038300009003c0010042000de009000808f500042
:103840001200320040042000de009000808f500003
:10385000740032008b003700e0062000de0090008c
:10386000808f50003200320060072000de009000a0
:10387000808f50003400320060062000de0090008f
:10388000808f5000240032007e0037009e007800b8
:1038900000802000c80007009e0078006c80400077
:1038a000900078004e009000010878004e009000d3
:1038b000100078000000e00003003a00c0e2a90018
:1038c000d601070002003700c0e2a800d7010700b8
:1038d0009e0078006e804000900078003e009000ce
:1038e000010878003e00900010007800e10f5000c1
:1038f00064003a001e007800e80040000000eb0081
:10390000800878001e007800ea0040000000eb000c
:10391000800878005b00370000802000c7000700a7
:10392000800078001e0090000108780055003700e4
:1039300000802000cc000700800078002e0090005e
:10394000010878004f00370000802000d1000700f8
:10395000800078003e009000010878001e0078008a
:10396000ee0040003e0090001000780080087800d3
:103970003e00900010007800e10f500008003a006f
:103980001e007800e80040000000eb00800878008e
:103990001e007800ea0040000000eb00800878007c
:1039a0003e009000100078000000e00035003a0072
:1039b0001e007800e8004000100020008008780019
:1039c0001e007800ea004000100020008008780007
:1039d0002c00370000802000b9000700800078002c
:1039e0004e009000010878001e007800ec004000b6
:1039f0004e00900010007800800878004e00900083
:103a0000100078000000e00003003a00c0e2a900c6
:103a1000820107001b003700c0e2a80083010700f5
:103a200018003700318020009140780000c3b300b7
:103a300080cf500007003a000080200013000700ec
:103a40000000e000020032006401070001003700be
:103a500066010700318020009140780010c3b30058
:103a600080cf500007003a000080200012000700bd
:103a70000000e00002003200600107000100370092
:103a8000620107000080fa00000006000400fa004e
:103a9000100798008e1f780000182a00801f7800f9
:103aa0001e009000d3f20700e48757001e00780044
:103ab0000080fa00000006000400fa0010079800d9
:103ac0008e1f7800a0182a00801f78001e0090002a
:103ad000c8f20700e48757001e0078000080fa0053
:103ae000000006000600fa000000eb00000f78005e
:103af0000000eb00100798000000eb002007980082
:103b0000d4c2bf000080fb004600de0061406000c0
:103b10000080fb0010079800d4c2bf000080fb00ab
:103b20004700de000080fb00200798001e00900088
:103b30000000e00005003a002e0090000000e000c8
:103b400002003a0030002000000f78001e009000b4
:103b50000000e00005003a002e009000e10f500048
:103b600002003a0020002000000f78001e009000a4
:103b7000e10f500005003a002e0090000000e00028
:103b800002003a0010002000000f78001e00900094
:103b9000e10f500005003a002e009000e10f5000a8
:103ba00002003a000000eb00000f78001e007800d1
:103bb0000080fa00000006000400fa00000f780000
:103bc000110798001e0090006e0240001e00900039
:103bd000ec0240001e0090006a0340001e009000ae
:103be000e80040001e009000660140001e009000aa
:103bf000e40140001e0090000080e800841f78006f
:103c0000851f7800861f7800811f7800821f78004a
:103c1000831f7800801f78001e009000801f7800ae
:103c200040192a00801f78001e00780071f20700fa
:103c3000f28757000080fa00000006000400fa0036
:103c4000100798008e1f7800d01d2a00801f780072
:103c50001e00900067f20700e48757001e007800fe
:103c60000080fa00000006000400fa001007980027
:103c70008e1f7800601e2a00801f78001e009000b2
:103c80005cf20700e48757001e0078000080fa000d
:103c9000000006000400fa00100798008e1f78004c
:103ca000f01e2a00801f78001e00900051f20700cd
:103cb000e48757001e0078000080fa00000006002c
:103cc0000400fa00100798008e1f7800801f2a0059
:103cd000801f78001e00900046f20700e48757001e
:103ce0001e0078000080fa000000060000a0fe0020
:103cf0003400f800881f780008c0b300a8018800cd
:103d00004f0478000000fa00404880000000e800fe
:103d10004048880041488000c0032000808f500048
:103d200005003a00504880000000e8005048880034
:103d30000000eb00404888008460a9000080fa0081
:103d40003400f9000080fe0000400600809fbe00a5
:103d5000821f78003400f80000c0b300a001880082
:103d60000000fa0087c0a90072488000b0118000ee
:103d70008040780000802000000041000148780069
:103d800071488000008020000080400010407800d2
:103d9000ea4f500002003a001000200060488800fe
:103da000704880000000e800704888000080fa0039
:103db0003400f9004f0178004f00be0000400600bb
:103dc0000000fa000000eb00200888000000eb0073
:103dd000000888000080eb0010088800510a2000cd
:103de00091407800f0c8b30000c060000044a0001b
:103df000a5e0b7008460a9009460a80005e1a800d0
:103e00000080fa00000006000000fa00c0e2a800ee
:103e1000d2c2a800c002a900c022a9000080fa00f6
:103e2000000006000000fa0090012000c011880088
:103e30000000eb009011880000002800801188002d
:103e40003342a80097c0a8000080fa0000000600d6
:103e50000000fa0030fc2f00601988000000eb0021
:103e6000001988000000eb00801988002000200065
:103e7000201988000000eb001019880021e3a80039
:103e80000080fa00000006000600fa0020079800f3
:103e90002e009000401988002023a8000000eb00ad
:103ea00010079800030037001e0090000000e80093
:103eb000100798009e009000703e2000808f5000f8
:103ec000f9ff34002023a90020c3bf006140600037
:103ed0000004e000fcff320000188000000f7800b2
:103ee0001e0078000080fa00000006000600fa00bc
:103ef000200798000000eb001007980010c6b300e0
:103f0000004f78000e00370032c2bf0061406000f1
:103f10000004e0000a003200b0118000004f780079
:103f20001e009000800078002e009000008040006d
:103f30001e4878001e0090000000e800100798005e
:103f4000a0c0b3009e4f1000040032009e009000fd
:103f500020062000808f5000ebff34001e009000f0
:103f6000800078002e009000808040000040eb0030
:103f7000804878000080fa00000006000400fa0083
:103f8000100798001e009000000f78000b0037000b
:103f900033c2bf00624060000004e000fcff3a0052
:103fa0001e009000104078000000fb00a011880067
:103fb0001e0090000000e800100798001e0090000e
:103fc000104078000004e000f1ff3a001e00780085
:103fd000100798000080fa00000006000000fa00b8
:103fe000c402a8000080fa00000006000000fa00e9
:103ff000c402a9000080fa00000006000000fa00d8
:10400000c422a8000080fa00000006000000fa00a8
:10401000c422a9000080fa00000006000000fa0097
:10402000c4e2a8000080fa00000006000000fa00c8
:10403000c4e2a9000080fa00000006000000fa00b7
:104040001602a80016c2bf00614060000004e00034
:10405000fcff3a0000c9b30012e2b70018c2bf006b
:10406000614060000004e000fcff3a0019c2bf009c
:104070000044b2000004e000fcff3a0019c2bf0097
:1040800001c8b300014060000004e00002003200fb
:1040900010202a00b9ff0700c0cab30012e2b7001f
:1040a00018c2bf00614060000004e000fcff3a005d
:1040b00019c2bf000044b2000004e000fcff3a0057
:1040c00019c2bf0001c8b300014060000004e00055
:1040d0000200320010202a00a8ff07001642a800a4
:1040e00016c2bf00644060000004e000fcff3a001c
:1040f0000080fa00000006002a00fa00301798003d
:10410000411798001602a80016c2bf006140600067
:104110000004e000fcff3a0010c9b30012e2b7004f
:1041200018c2bf00614060000004e000fcff3a00dc
:1041300019c2bf000044b2000004e000fcff3a00d6
:1041400019c2bf0001c8b300014060000004e000d4
:104150000200320010202a0088ff07000e80e800cd
:1041600041212a0004000900315878005000b100b4
:104170005100b1000000eb00000f78001b00370079
:104180001662a80018c2bf00624060000004e00090
:10419000fcff32001e01780010c2bf008040780092
:1041a0000e80e800000041000148780016c2bf0000
:1041b000684060000004e000fcff3a00300020008e
:1041c0009e0f100002003c0016a2a900010037005b
:1041d00016a2a8001682a80016c2bf007040600098
:1041e0000004e000fcff3a001e0fe8004000200041
:1041f0009e0f1000e2ff34001642a80016c2bf0056
:10420000644060000004e000fcff3a000e80e8001b
:10421000104090000000fb00000040000000400043
:10422000000040000000400000004000000040008e
:104230000000400000004000800078000e80e80090
:10424000204090000000fb00808070003e10900035
:10425000010878000e80e800304090000000fb006c
:10426000000040000000400000004000000040004e
:10427000000040000000400000004000000040003e
:10428000800078000e80e800404090000000fb00b5
:10429000808070004e109000010878000080fa00c5
:1042a000000006000000fa0070022000a010880044
:0c42b00017e2a8000080fa0000000600e1
:020000040000fa
:020000040002f8
:04aff800befa00009d
:020000040000fa
:020000040002f8
:04affc007fbf000013
:020000040000fa
:10000800da220000da220000da220000da220000f8
:10001800da220000da220000da220000da220000e8
:10002800da220000da220000da220000761e000040
:10003800da220000da220000da220000da220000c8
:10004800da220000da220000da220000da220000b8
:10005800da220000da220000da220000da220000a8
:10006800da220000da220000da220000da22000098
:10007800da220000da220000da220000da22000088
:10008800da220000da220000da220000da22000078
:10009800da220000da220000a61e0000da220000a0
:1000a800da220000da220000da220000da22000058
:1000b800da220000da220000da220000da22000048
:1000c800da220000da220000da220000da22000038
:1000d800da220000da220000da220000da22000028
:1000e800da220000da220000da220000da22000018
:1000f800da220000da220000da220000da22000008
:10010800da220000da220000da220000da220000f7
:10011800da220000da220000da220000da220000e7
:10012800da220000da220000da220000da220000d7
:10013800da220000da220000da220000da220000c7
:10014800da220000da220000da220000da220000b7
:10015800da220000da220000da220000da220000a7
:10016800da220000da220000da220000da22000097
:10017800da220000da220000da220000da22000087
:10018800da220000da220000da220000da22000077
:10019800da220000da220000da220000da22000067
:1001a800da220000da220000da220000da22000057
:1001b800da220000da220000da220000da22000047
:1001c800da220000da220000da220000da22000037
:1001d800da220000da220000da220000da22000027
:1001e800da220000da220000da220000da22000017
:0801f800da220000da22000007
:020000040000fa
:10020800da220000da220000da220000da220000f6
:10021800da220000da220000da220000da220000e6
:10022800da220000da220000da220000761e00003e
:10023800da220000da220000da220000da220000c6
:10024800da220000da220000da220000da220000b6
:10025800da220000da220000da220000da220000a6
:10026800da220000da220000da220000da22000096
:10027800da220000da220000da220000da22000086
:10028800da220000da220000da220000da22000076
:10029800da220000da220000a61e0000da2200009e
:1002a800da220000da220000da220000da22000056
:1002b800da220000da220000da220000da22000046
:1002c800da220000da220000da220000da22000036
:1002d800da220000da220000da220000da22000026
:1002e800da220000da220000da220000da22000016
:1002f800da220000da220000da220000da22000006
:10030800da220000da220000da220000da220000f5
:10031800da220000da220000da220000da220000e5
:10032800da220000da220000da220000da220000d5
:10033800da220000da220000da220000da220000c5
:10034800da220000da220000da220000da220000b5
:10035800da220000da220000da220000da220000a5
:10036800da220000da220000da220000da22000095
:10037800da220000da220000da220000da22000085
:10038800da220000da220000da220000da22000075
:10039800da220000da220000da220000da22000065
:1003a800da220000da220000da220000da22000055
:1003b800da220000da220000da220000da22000045
:1003c800da220000da220000da220000da22000035
:1003d800da220000da220000da220000da22000025
:1003e800da220000da220000da220000da22000015
:0803f800da220000da22000005
:020000040000fa
:1042bc0001000000010000000100000001000000ee
:1042cc0001000000010000000100000000000000df
:1042dc002741000025640000273a00005b00000025
:1042ec0025640000002c0000005d0000007d000033
:1042fc000a0000007b22000044300000223a00003b
:10430c00256400007d0000007b2200004431000089
:10431c00223a0000256400007d0000007b22000092
:10432c0041320000223a0000256400002c200000dd
:10433c0022410000332200003a250000642c0000ca
:10434c002022000041340000223a000025640000c5
:10435c002c20000022410000352200003a250000ec
:10436c00642c00002022000044360000223a000099
:10437c00256400002c20000022440000372200009d
:10438c003a250000642c000020220000444200006a
:10439c00223a0000256400002c200000224400007a
:1043ac00562200003a250000647d0000007b0000ce
:1043bc0022660000223a0000256400007d00000007
:1043cc007b2200006e2200003a250000647d000074
:1043dc00007b000022760000223a000025640000d9
:1043ec007d0000007b220000622200003a250000c4
:1043fc00647d000000410000434b0000206e000073
:10440c006f74000020720000656300006965000095
:10441c0076650000642e00000a0000000000000019
:08442c00000000000000000088
:020000040000fa
:10443400080900000800000002000000000000005d
:1044440000000000000000000008000064000000fc
:1044540000000000f6080000120000000200000046
:104464000100020000040000080010000000000029
:10447400202b2d002330000020090000080000003c
:1044840002000000686a6c00747a4c0000000000ae
:10449400140900000c00000002000000686a6c00af
:1044a400747a4c00006343006e5b0000d408000083
:1044b40022000000020000003031320033343500a5
:1044c4003637380039616200636465006600300085
:1044d4003132330034353600373839004142430035
:1044e4004445460000000000ae080000260000001d
:1044f400020000000a0008000a101000106469009d
:104504006f75780058700000303132003334350054
:1045140036373800396162006364650066414200e1
:104524004344450046000000640800004a000000bf
:10453400020000000000410029211c001917160088
:1045440015141300121211001111100010100f0095
:104554000f0f0f000e0e0e000e0e0e000e0d0d00ae
:104564000d0d0d000d303100323334003536370077
:1045740038396100626364006566670068696a00cf
:104584006b6c6d006e6f70007172730074757600e1
:10459400777879007a000000100900000400000018
:1045a4000200000000000000000000000000000005
:020000040000fa
:0445b4000000fe0005
:00000001FF
