:020000040000fa
:080000000402040000000000ee
:020000040000fa
:1004000084020400000000004f882000807f22004a
:100410000001880000000000050007000c00070034
:10042000ae0f0200000000000040da000000fe00f5
:100430004440a900c02020000000e000030032007a
:1004400000002000a00188004440a8000000060031
:10045000203e21000100200016003700620040000d
:10046000e0804800910188009001ba0062004000dd
:10047000e0804800910188009002ba0062004000cc
:10048000e08048000002eb006028e10005003a002f
:100490008301e90007003300038009000059eb00e5
:1004a000040037006128e100010032000082eb0007
:1004b00005000700910188001001ba000200e00069
:1004c000e6ff3a00000005009101880080027800f4
:1004d00062004000e08048003559ba008301e9001d
:1004e000080032002559ba008301e90005003200f6
:1004f0000400e000f4ff320015d9ba008301e900de
:10050000f1ff3a0000000600900178000200e000d0
:1005100002003a000308e900050037008080eb0084
:100520001304e000020032000308e8009300fb001f
:1005300001007800000006000200fa00f0bf9f00f2
:100540003fb99700ea8157008f80e90040282000da
:10055000020007000080fa00000006001200fa0006
:10056000889fbe008a9fbe008c1f7800020478001e
:10057000a0b79f00b1b79f00830078007880570034
:10058000be0007000000eb00e0b79f00d8b79f0057
:1005900000067800dfb49700194578000a80fb0058
:1005a0000000ea00cf05de000a00fb00b8000700eb
:1005b0000000e0001a0032006fb097000000e80071
:1005c000e0b79f00120020008000eb003fb09700d2
:1005d000afb197000300010000047800ac000700f1
:1005e000000178000000e000f3ff3a006fb09700d0
:1005f000e10f4400070032000000e900e0b79f006f
:10060000880078003fb09700afb197000300010069
:10061000220037000000e900e0b79f001f0037000c
:100620000b04e90050c2b300804f5500190032009e
:100630000b047800170037006fb097000000e80047
:10064000e0b79f00120020008000eb003fb0970051
:10065000afb1970003000100800078001900fb0093
:10066000808f50000a003200e18f40007d00320090
:100670006fb097000000e900e0b79f000001eb00b9
:100680003fb09700afb1970003000100750037003d
:100690008904e8000804e900e7ff3b005fb0970029
:1006a0008b004000d1b79f0050c2b300804f55006f
:1006b000030032000a04e000b6ff3a006900370088
:1006c000114178008041eb00a0c2b300804f51007f
:1006d00003003a000100e800d0b79f008241780093
:1006e000a3f79f000000eb0080bf9f000b003700c6
:1006f0008fb89700f0ff2700808f50000400320071
:100700006a08b900000041000300400080bf9f005c
:100710005fb097000000e800d0b79f00dfb49700fb
:10072000194478000801fb0003fd2f00030041007d
:10073000e90f5000eeff36008800fb0080872000a4
:100740005b0007000000e00002003a00004478006f
:10075000020037000900e800d0b79f00b8f79f00fb
:1007600080c6b300804f540005003a00dfb0970008
:1007700066405000914f1400080032000a00370014
:10078000c0c6b300804f540007003a00dfb09700a6
:10079000914f140004003a0065404000b0f79f00fc
:1007a0000100e800d0b79f005fb097009000fb0009
:1007b000f08720003e0007000000e00019003a002a
:1007c0006fb097000000e800e0b79f001200200023
:1007d0008000eb003fb09700afb19700030001002d
:1007e000000478002a000700000178000000e00003
:1007f000f3ff3a006fb09700e10f440007003200aa
:100800000000e900e0b79f00880078003fb0970043
:10081000afb1970003000100020037000000e900bb
:10082000e0b79f007c805700290007000000e0002f
:1008300003003c000c00e000090032000900370012
:100840004ff097000004e000010032000c06e800c1
:100850005fb097000000e800d0b79f004dff370061
:10086000000678000c0078004f0678004f05be00a7
:100870004f04be000080fa00000006000200fa00eb
:10088000f1bf9f00010878000080fa000000060018
:100890006900e100040035006d00e1000300340050
:1008a0000002b10001003200000005001000050048
:1008b000040037001004e00001003a0000000500c9
:1008c0000000e80090cf1000faff3a000000060098
:1008d000881f7800000478000040eb000054980066
:1008e000380090009040780090c6b30080cf500050
:1008f0002a00320013003c007140500080cf5000ad
:100900002600320005003c0050c2b30080cf5000ea
:100910006400320030c5b3001b00370030c6b3009e
:1009200080cf50001b0032000040e80080cf500014
:100930001a0032006940500080cf50006e003a002b
:100940007300370000c7b30080cf500007003c00a1
:100950000040e90080cf500010003d000040e90059
:1009600080cf500064003a000f00370050c7b3003a
:1009700080cf5000090032006340400080cf50001b
:10098000060032006540500080cf50004300320026
:10099000590037008000eb005e0037000800780047
:1009a000620007005f003700684890000004e00024
:1009b0005b003a00f8489000c0c6b30080cf5000fa
:1009c000270032000a003c006440500080cf5000f5
:1009d0002b00320000c0e80080cf5000150032002c
:1009e0006840500080cf500025003a000a003700d0
:1009f00040c7b30080cf5000210032006640400065
:100a000080cf50001e0032006940500080cf50005f
:100a10001b003a0007003700280090000080e90022
:100a20002004980010007800084c900008487800d6
:100a30003b003700280090000080e9002004980067
:100a40001002780048009000cf80de00010178009d
:100a500082017800009abe000292be00300037008a
:100a6000280090000080e900200498001001780020
:100a700048009000cf80de000089be0028003700cb
:100a8000280090000080e900200498001000780001
:100a90004804900008087800210037001100200069
:100aa0001c003700480090000000e8004004980057
:100ab00098017800120020008000eb0018009000e0
:100ac000030001008000780050022000808f500059
:100ad0001300320048009000e18f4000080032000f
:100ae0000000e90040049800980178000001eb0044
:100af00018009000030001000000eb00090037001f
:100b00000000e9004004980001007800050037006b
:100b10008080eb00080078005e01070001003700cc
:100b2000100020004f047800000006002f02b000e3
:100b3000889fbe008a9fbe008c9fbe008e1f7800db
:100b400080047800600090000000e00001003c009c
:100b5000f0ff27000000e900d0049800c9009000d1
:100b60000c0033000100e800c004980099017800ef
:100b7000120020008000eb0019009000030001002b
:100b800000057800b0022000800f550006003a00f2
:100b90000b0037000100e800c00498002cfd2f0076
:100ba0000f0646001b003700d0022000800f5500c2
:100bb000030032002cfd2f000f0646001600370000
:100bc00030fd2f000f044000aad79f00590090006d
:100bd0000000e900d0049800c90090000a0033002a
:100be0000100e800c004980099017800120020007c
:100bf0008000eb0019009000030001000005780060
:100c000008067800040037000100e800c0049800de
:100c1000080678000085eb00188520003900900058
:100c20009000fb000800780021ff0700080050003a
:100c3000a184200060c478008805fb000003200028
:100c4000800f550033003a00590090000000e90081
:100c5000d0049800c90090000c0033000100e800a7
:100c6000c004980099017800120020008000eb0079
:100c700019009000030001000005780080072000a3
:100c8000800f550005003a00070037000100e8001a
:100c9000c00498000085eb001b0037008005200091
:100ca000800f550018003a000804e00002003200ee
:100cb000f04f54001d003a00590090000000e90078
:100cc000d0049800c9009000090033000100e8003a
:100cd000c004980099017800120020008000eb0009
:100ce00019009000030001000005780003003700a0
:100cf0000100e800c00498000085eb000047eb000d
:100d00000b012000110037000804e000b800320099
:100d1000060037000047eb000804e00004003a003a
:100d2000ad002000084778001c0037001ec0b3004b
:100d3000ad002000ea4f540018003200e88f550043
:100d400002003a008b067800140037006d01200085
:100d500012003700590090000000e900d00498000c
:100d6000c9009000090033000100e800c0049800a9
:100d700099017800120020008000eb00190090001b
:100d80000300010000057800030037000100e800bf
:100d9000c00498000085eb001ec0b30000032000d3
:100da000800f5500ebff32000e04e0001800320007
:100db000005e7800160037006f805700800f5600e5
:100dc000010031000a5e7800590090000000e9003f
:100dd000d0049800c9009000090033000100e80029
:100de000c004980099017800120020008000eb00f8
:100df000190090000300010000057800030037008f
:100e00000100e800c00498000085eb001ec0b3009c
:100e1000e10f4500070032000d0178008a007800dc
:100e2000908520008b0107000000e000e2ff3a00ff
:100e300066003700490090000000e900c0049800f7
:100e40000e04e00008003a0020fd2f000f004000d3
:100e5000800f56005b003a00e10f450059003a0050
:100e60008a00780065003700004eeb00694890006a
:100e7000110020000004e00060003a0039009000fa
:100e80009040780040c6b30080cf5000030032008d
:100e90006540400080cf50000a003a000b01780006
:100ea0008000eb0020fd2f000f00400073010700c1
:100eb0000203be000002be0010c0b30080549800c0
:100ec0000d0037000b0178008000eb0020fd2f00a3
:100ed0000f004000c30107000203be000002be0075
:100ee00010c0b30080549800b900900000c7b30050
:100ef000914f10002c003200f9489000c0c6b3009a
:100f000080cf5000220032000a003c0064405000b4
:100f100080cf50002400320000c0e80080cf500095
:100f2000140032006840500080cf50001e003a008c
:100f30000a00370040c7b30080cf50001a003200cb
:100f40006640400080cf50001700320069405000da
:100f500080cf500014003a000600370029009000ae
:100f60000080e900a0049800100078000448780090
:100f700012003700290090000080e900a0049800ca
:100f8000100078000498be000690be000b003700e9
:100f9000290090000080e900a0049800100078006b
:100fa0000488be0005003700290090000080e90099
:100fb000a0049800100078000408780011002000b8
:100fc0000e0037008000eb000c0037004900900055
:100fd0000000e900c0049800990178000001eb00ce
:100fe0008a007800190090000300010094ff370088
:100ff0001ec0b3008b00200052ff370001007800b4
:101000004f0778004f06be004f05be004f04be00dc
:101010002f02b10000000600000278001100370026
:101020008402e80094417800d0c2b300954f1000cc
:1010300008003a0081cf510003003e002440900098
:1010400080cf50001200360063024200630151005d
:101050000400370081cf51000d0032000201e90089
:1010600005027800e20f5100edff3e008401780098
:101070000300370093cf1000050032008301e80021
:1010800002004200808f5100faff3a000000050084
:1010900010000500ee874700889fbe008a9fbe00b3
:1010a0008c9fbe008e1f78000004780081067800b7
:1010b0000000eb00d0b79f00f8489000c0c6b30016
:1010c00080cf500002003a0011002000d1b79f00ed
:1010d0000d00e00024003d00380190000200e8000f
:1010e00030049800904078000040eb0080f79f00ab
:1010f000e0c5b30080cf500003003a000280e80052
:101100003004980081f79f00b80490000901e800be
:10111000d0c5b300994f10000100320009017800da
:10112000d105200002007800e1fd070000077800eb
:101130008000eb000000e000bf0032000905500015
:10114000e20f5500080034000a81e9000900e800b8
:10115000d1022000bf00070011c0b300c1ef9f0003
:101160000000e00002003a000040eb00c0ef9f00ea
:10117000680090000000e00004003c00f0ff270041
:101180000d00e00001003a0010002000500498001b
:10119000684890000004e0000d003a00280090002c
:1011a000dfb097000100e000050032000080e90098
:1011b0002004980010007800c0b79f00040037009a
:1011c0000080e9002004980010007800f0b79f002c
:1011d0008045eb00610037000d00e00003003400a3
:1011e00009007800aafd0700200037000d00e0008c
:1011f000200032004fe897000004e0000d003a00a4
:101200008ff097000104e00005003a000a01780021
:1012100089007800380090008e0007000c0037002d
:101220000a017800890078003800900089000700e2
:101230000e0037000ff097000004e00007003a00ae
:101240000a017800890078003800900072ff0700da
:101250000000e00007003a006e0037000a01780045
:1012600089007800380090006bff07000000e00064
:1012700068003a00dfb097000100e00009003a0082
:10128000684890000004e00033003a007fb0970007
:1012900009587800f0b79f0010c0b30000549800c0
:1012a0002d003700e9e79f000900fb008005fb00e7
:1012b0000100320010002000800478001c00200093
:1012c0000000e00017003a006fe097000004e00023
:1012d00004003a007a805700a40107008004e80067
:1012e000100037000c06e9007a005600e0c07f00cd
:1012f00048019000e1cf4000080032000200e90000
:1013000040049800980178000001eb008100fb0088
:101310001800900003000100020037000200e900fd
:10132000400498008c8f5400eeff35006848900010
:101330000004e00005003a00cfb097008b18780059
:10134000c1b79f0010c0b30000549800680090001f
:101350000000e900600498002bc0b3005800900022
:101360000000e90050049800480190000b00330091
:101370000200e80040049800980178001200200064
:101380008000eb001800900003000100800478004a
:10139000e10f400090ff3a00020037000200e80031
:1013a00040049800480090000000e90040049800c4
:1013b0000d00e00002003200e2cf550004003200d0
:1013c0000b00fb008080eb001b0032000f00370099
:1013d000684890000004e00009003a005fb0970000
:1013e0000000e00003003200cfb097008008eb005f
:1013f00003003700afe897007fb0970001487800fe
:101400000d00e00001003d003e04980011002000a6
:1014100009003700480090000000e90040049800ef
:10142000980178000001eb00890078001800900016
:1014300003000100deff3700010078004f0778004d
:101440004f06be004f05be004f04be00ef00b100c6
:1014500000000600820178000400370090cf1000e1
:10146000050032000000e8008301e9000300e0000d
:10147000faff3a000000eb00000006000200fa004c
:10148000889fbe008a9fbe008c1f78008005780070
:1014900001057800020678000100e00001003a0032
:1014a0006c8557000b047800010037000804e80041
:1014b000984478000900fb00f5fc07000000e000fc
:1014c000faff3a00d0c2b30080cf540005003200ca
:1014d00000c0e90080cf5400020032008044780050
:1014e000010037000804e8000c0178008a00780049
:1014f000080078003b0007000203be000002be00a7
:101500009a0f540001003a000b0d78009a8f550095
:1015100005003a00e00f5200e08f5a00e00f5b0038
:10152000e08f5b0014003a00b0c2b30080cf5400db
:1015300006003a00e00f5200e08f5a00e00f5b0017
:10154000e08f5b0020003d000b003700d0c2b300ed
:1015500080cf54001c003a006000b8000200200058
:10156000030028000020e10001a8e10002b0e10032
:1015700003b8e1000e00360020022000b0438800ce
:101580006b40400080cf540004003a006000b80077
:1015900002002000030028000d003700f0ff2f009c
:1015a000f1ff2f00f2ff2f00f3ff270008003700a4
:1015b0006000b8006011b800040250008582580035
:1015c00006035900878359000400be000601be00cf
:1015d0004f0678004f05be004f04be000080fa00a1
:1015e00000000600fc874700889fbe008a9fbe005f
:1015f0008c9fbe008e1f780000077800810678005f
:101600008204780000047800010037000804e80034
:10161000184678000c00fb009dfc07000000e0006d
:10162000faff3a00d0c2b300804f560005003200e6
:1016300000c0e900804f56000200320000467800ea
:10164000010037000804e8000900e000050035004b
:10165000e18f54000300320040022000808f5400cc
:10166000040034000d00e000b00032008e0e78005f
:10167000ae0037000900e0000e003400f08f540087
:101680001a003a0000c3b300984f100016003a0049
:101690009840900080c7b30080cf50000300320014
:1016a00080c5b30080cf50000f003a000884e800e6
:1016b0000e003700a900200000c3b300984f1000af
:1016c0000a003a009840900080c7b30080cf5000d5
:1016d000040032008900200080c5b30080cf500094
:1016e00002003a000884e80009012000080578009b
:1016f000010037000a05e80000c3b3009a4f10004c
:10170000fcff32008a0578006022b8006033b80020
:10171000260037005082200080c0500081ef9f00db
:1017200009027800cfa2de00050378008603780066
:101730000fb097009fb097002fb19700bfb19700ef
:101740009e000700d0b79f00e1b79f00f2b79f004f
:1017500083bf9f000fe897000002fb00cfa2de00ce
:1017600005037800860378008b05e8000fb097002a
:101770009fb097002fb19700bfb19700c0af9f00f7
:10178000d1af9f00e2af9f00f3af9f005fb0970023
:10179000efb097007fb197008fb997000002420029
:1017a00081824a0002034b0083834b0084b79f0071
:1017b00095b79f00a6b79f00b7b79f001b00fb001f
:1017c000770007008000780009017800508220002f
:1017d00020ff0700800078000000e000cdff3a0005
:1017e0008b0f54000a003a000d00e0004f00320059
:1017f0008e0e78006022b8006033b80084b79f0076
:1018000095b79f00a6b79f00b7b79f004d00370060
:101810008a80550000802000694078000000fb00ad
:10182000008050002c0033004240a90020003c0002
:101830008fea97000500fb00cf80de0001017800f1
:10184000820178000fb297009fb297002fb39700e4
:10185000bfb397000000520081805a0002015b0074
:1018600083815b000020e10001a8e10002b0e100fb
:1018700003b8e1000e00390009027800cfa2de00b3
:101880000503780086037800fe0007004faa970042
:10189000dfaa97006fab9700ffab97000400e10051
:1018a0000588e1000690e1000798e1000a00320097
:1018b00020022000b0438800f0ff2f00f1ff2f002e
:1018c0000001be0080b79f0091b79f00a2b79f00a4
:1018d000b3b79f0011003700d0c2b300804f56004d
:1018e0000e003a006000b8006011b8000fb2970017
:1018f0009fb297002fb39700bfb397000402500028
:1019000085825800060359008783590084b79f00d9
:1019100095b79f00a6b79f00b7b79f000d00e000e6
:10192000080032008b0e7800060037006000b80017
:101930006011b80080b79f0091b79f00a2b79f00c9
:10194000b3b79f000fb097009fb097002fb19700db
:10195000bfb197004f0778004f06be004f05be008d
:101960004f04be00cf01b1000000060080007800e7
:10197000010037000000e8001004e000fdff3a001d
:101980000100500000000600a04380000000e000bd
:101990000100320000000100608720000000060006
:1019a000800078001104b100030035009101b100fe
:1019b00001003c000050a00000000600889fbe000f
:1019c0008a9fbe008c1f78000205be000004be0086
:1019d0000006eb00e00f5000e08f5800e00f5900c8
:1019e000e08f590007003d006000b8006011b800aa
:1019f00008045000898458000a0559008b85590055
:101a00001c002000e00f5200e08f5a00e00f5b0046
:101a1000e08f5b0002003d000f0007000c00a200f9
:101a20000800be000a01be002a0107000203be0032
:101a30000002be000c00e0000100320006000700ba
:101a40000400be000601be004f0678004f05be0030
:101a50004f04be00000006006000b8006011b8002e
:101a600004025000858258000603590087835900fc
:101a700000000600881f7800000478005001be00b6
:101a80004000be000000420081804a0002014b007d
:101a900083814b00009cbe000294be000400e10064
:101aa0000588e1000690e1000798e100020031009e
:101ab000680044001008e8004f04780000000600a9
:101ac000f4874700889fbe008a9fbe008c9fbe009f
:101ad0008e1f78000205be000004be00d4b79f0030
:101ae000e5b79f00f6b79f0087bf9f000000eb009f
:101af000c0b79f00b0b79f00a0b79f0090b79f00ee
:101b000080b79f000d042000bfb097004fb0970032
:101b1000000140000000e00014003d004f08de001e
:101b200000007100c0b79f00ad00070001003d003c
:101b300012002000b000070001003d00120020004c
:101b4000b500070001003d0012002000ba000700a8
:101b5000be000700feff3a00c2000700c8000700f1
:101b60000f004000c3ff0700270037004f08de00ca
:101b700000067100ccb79f009900070001003d00ee
:101b8000120020009c00070001003d001200200010
:101b9000a100070001003d0012002000a600070080
:101ba000aa000700feff3a00ae0007000fb2970040
:101bb0009fb297002fb39700bfb39700b6000700fe
:101bc0000000520081805a0002015b0083815b00ab
:101bd00080b79f0091b79f00a2b79f00b3b79f0047
:101be0000007eb00ac0007000020e10001a8e100c5
:101bf00002b0e10003b8e100010031001e00200046
:101c00000e005600c0b79f004fb297000400e000de
:101c10000700350010002000010020006011b8000e
:101c200008047000898470000a0571008b857100ba
:101c30008d06e900b4ff3a000400e00003003d0017
:101c40008f0007000f0040008aff07004fa8970091
:101c50000000e00004003a000fb497009fb4970022
:101c60002fb59700bfb59700970007004f07780082
:101c70004f06be004f05be004f04be004f01b1002d
:101c800000000600881f780018002000881f7800d8
:101c90008bff07008f87e9004f04780000000600e3
:101ca000801feb0086ff07008f87e9000000060019
:101cb000889fbe008a9fbe008c1f78007b000700b3
:101cc00005003d002f00070007003d003d00070014
:101cd0000006eb00040037003f00070002003d0053
:101ce000300007001c00200077000700e5ff070018
:101cf0000203be000002be000c00e0000100320042
:101d0000280007000400be000601be004f06780050
:101d10004f05be004f04be0000000600889fbe00b5
:101d20008a9fbe008c1f78006000070003003d0002
:101d30001400070006003d000400370026000700dd
:101d400003003d006000b8006011b8001d000700ee
:101d50005d000700d2ff07000203be000002be00c4
:101d60000c00e000010032000e0007000400be007d
:101d70000601be004f0678004f05be004f04be00ae
:101d8000000006006000b8006011b80008045000b0
:101d9000898458000a0559008b8559001c002000d1
:101da000030037006000b8006011b800050037007c
:101db000e00f5200e08f5a00e00f5b00e08f5b0005
:101dc00000000600040250008582580006035900f6
:101dd00087835900000006000006eb00f4ff37007f
:101de0000180400090b79f000001eb008fb097008a
:101df0000100e000000006000200700090b79f00a4
:101e00000180400080b79f000001eb00ffa8970011
:101e10000100e000000006000200700080b79f0093
:101e200001804000f0af9f000001eb00efa8970099
:101e30000100e0000000060002007000f0af9f000b
:101e40000182400020000700f50305008301d10056
:101e50000281d3008180d3000080d3008502e90095
:101e60000000060000027200e4af9f000804440076
:101e700089844c000a054d008b854d00000006004a
:101e80003fb29700cfb297005fb39700efb39700d0
:101e900000fe2f00000006003fb09700cfb0970073
:101ea0005fb19700efb19700000006000205be0089
:101eb0000004be00e00f5000e08f5800e00f590012
:101ec000e08f5900000006000800be000a01be00b5
:101ed00000000600889fbe008a9fbe008c9fbe0047
:101ee0000404b8000506b8008904460060854e0069
:101ef0000606b8000a054600e0854e000706b80051
:101f00008b054600040eb800890446000a854e0081
:101f1000e0854d00050eb8000a0546008b854e0091
:101f2000060eb8008b0546000416b8000a054600e8
:101f30008b854e000516b8008b054600041eb800c0
:101f40008b0546000800be000a01be004f06be0019
:101f50004f05be004f04be00000006000c00fa0052
:101f60001000200050079800100020004007980043
:101f70000000eb00300798000000eb0020079800fd
:101f80000000eb0010079800130107000201070092
:101f900007010700ee000700c02d290059010700c6
:101fa0005031290057010700000037002e02900031
:101fb000be0190004e019000de0090001e007800ef
:101fc00042000700914380001e0090008080500076
:101fd0005e009000808f5000f4ff3500ce0090002e
:101fe0001e0078000300070090438000100798004f
:101ff000eeff37008800fa00889fbe002087980017
:10200000318798000000eb00100798000000eb00fb
:10201000000f7800260037002000200010079800ed
:10202000200037002e8090009000780010032000e0
:10203000808f500018003a000000eb00000f78007d
:102040000f0037001e0090000084e9009e04780015
:102050001e009000ee000700800078006401470039
:10206000080044000000400000004000090040005b
:102070000000400002004000010878001e0fe80048
:102080003e8090009e0f1000eeff35002e809000e5
:102090000080e800208798001e0090000000e80003
:1020a000100798001e009000e50f5000ddff34007f
:1020b0002e809000100078000000e000d6ff3a006b
:1020c0004f04be000080fa00000006007000fa0015
:1020d00020379800313798004237980053379800de
:1020e000643798000e007800e20007000e007800c8
:1020f000040107002e4090000000fb00703798009c
:1021000060062000fe309000808f50001a003200e0
:1021100060062000fe309000808f500009003c00d7
:1021200010042000fe309000808f50000e0032001e
:1021300020062000fe309000808f50001a003200f0
:102140001c003700e0062000fe309000808f500019
:102150000d00320060072000fe309000808f50009c
:102160000d00320013003700ae3090000e007800f2
:10217000120007000f0037000e0078003000070043
:10218000303798000b0037000e007800370007004a
:1021900040379800070037000e0078003e00070027
:1021a00050379800030037000e0078004500070004
:1021b000603798000080fa00000006000400fa0072
:1021c000000f7800110798001e0090006e0240007a
:1021d0001e009000ec0240001e0090006a034000c8
:1021e0001e009000e80040001e00900066014000c4
:1021f0001e009000e40140001e0090000080e800f6
:10220000841f7800851f7800861f7800811f780062
:10221000821f7800831f7800801f78001e009000c6
:10222000801f780050372900801f78001e0078003a
:10223000c1f80700f28757000080fa00000006008e
:102240000400fa00100798008e1f7800e03b290078
:10225000801f78001e009000b7f80700e487570041
:102260001e0078000080fa00000006000400fa005a
:10227000100798008e1f7800703c2900801f78009e
:102280001e009000acf80700e48757001e0078009d
:102290000080fa00000006000400fa001007980011
:1022a0008e1f7800003d2900801f78001e009000de
:1022b000a1f80700e48757001e0078000080fa00ac
:1022c000000006000400fa00100798008e1f780036
:1022d000903d2900801f78001e00900096f80700ae
:1022e000e48757001e0078000080fa000000060016
:1022f00000a0fe003400f800881f780008c0b3007a
:10230000a80188004f0478000000fa008043800094
:102310000000e8008043880081438000c003200063
:10232000808f500005003a00904380000000e800d4
:10233000904388000000eb00804388008460a9007f
:102340000080fa003400f9000080fe000040060022
:102350000000fa000000eb00200888000000eb00fd
:10236000000888000080eb0010088800510a200057
:1023700091407800f0c8b30000c060000044a000a5
:10238000a5e0b7008460a9009460a80005e1a8005a
:102390000080fa00000006000000fa00d2c2a80087
:1023a000c002a900c022a9000080fa0000000600b7
:1023b0000000fa0090012000c01188000000eb002e
:1023c0009011880000002800801188003342a80086
:1023d0000080fa00000006000000fa0030fc2f0028
:1023e000601988000000eb00001988000000eb0075
:1023f0008019880020002000201988000000eb00d0
:102400001019880021e3a8000080fa0000000600ef
:102410000600fa00200798002e009000401988005e
:102420002023a8000000eb001007980003003700ed
:102430001e0090000000e800100798009e00900029
:10244000703e2000808f5000f9ff34002023a90047
:1024500020c3bf00614060000004e000fcff3200c8
:1024600000188000000f78001e0078000080fa003d
:10247000000006000600fa00200798000000eb00ac
:102480001007980010c6b300004f78000e00370008
:1024900032c2bf00614060000004e0000a00320068
:1024a000b0118000004f78001e009000800078007e
:1024b0002e009000008040001e4878001e00900012
:1024c0000000e80010079800a0c0b3009e4f100065
:1024d000040032009e00900020062000808f5000f3
:1024e000ebff34001e009000800078002e0090006a
:1024f000808040000040eb00804878000080fa00b7
:10250000000006000400fa00100798001e0090006a
:10251000000f78000b00370033c2bf00624060003c
:102520000004e000fcff3a001e009000104078001c
:102530000000fb00a01188001e0090000000e800d1
:10254000100798001e009000104078000004e00082
:10255000f1ff3a001e007800100798000080fa0092
:10256000000006000200fa00c402a800c422a8006d
:102570000000eb00000f7800010037001e0fe8009c
:10258000f0e124009e0f1000fcff3400c422a900db
:10259000c402a9000000eb00000f78000100370022
:1025a0001e0fe800f0e124009e0f1000fcff340035
:0825b0000080fa0000000600a3
:020000040000fa
:020000040002f8
:04aff800befa00009d
:020000040000fa
:020000040002f8
:04affc007fbf000013
:020000040000fa
:100008005e1400005e1400005e1400005e14000020
:100018005e1400005e1400005e1400005e14000010
:100028005e1400005e1400005e14000078110000e9
:100038005e1400005e1400005e1400005e140000f0
:100048005e1400005e1400005e1400005e140000e0
:100058005e1400005e1400005e1400005e140000d0
:100068005e1400005e1400005e1400005e140000c0
:100078005e1400005e1400005e1400005e140000b0
:100088005e1400005e1400005e1400005e140000a0
:100098005e1400005e1400005e1400005e14000090
:1000a8005e1400005e1400005e1400005e14000080
:1000b8005e1400005e1400005e1400005e14000070
:1000c8005e1400005e1400005e1400005e14000060
:1000d8005e1400005e1400005e1400005e14000050
:1000e8005e1400005e1400005e1400005e14000040
:1000f8005e1400005e1400005e1400005e14000030
:100108005e1400005e1400005e1400005e1400001f
:100118005e1400005e1400005e1400005e1400000f
:100128005e1400005e1400005e1400005e140000ff
:100138005e1400005e1400005e1400005e140000ef
:100148005e1400005e1400005e1400005e140000df
:100158005e1400005e1400005e1400005e140000cf
:100168005e1400005e1400005e1400005e140000bf
:100178005e1400005e1400005e1400005e140000af
:100188005e1400005e1400005e1400005e1400009f
:100198005e1400005e1400005e1400005e1400008f
:1001a8005e1400005e1400005e1400005e1400007f
:1001b8005e1400005e1400005e1400005e1400006f
:1001c8005e1400005e1400005e1400005e1400005f
:1001d8005e1400005e1400005e1400005e1400004f
:1001e8005e1400005e1400005e1400005e1400003f
:0801f8005e1400005e1400001b
:020000040000fa
:100208005e1400005e1400005e1400005e1400001e
:100218005e1400005e1400005e1400005e1400000e
:100228005e1400005e1400005e14000078110000e7
:100238005e1400005e1400005e1400005e140000ee
:100248005e1400005e1400005e1400005e140000de
:100258005e1400005e1400005e1400005e140000ce
:100268005e1400005e1400005e1400005e140000be
:100278005e1400005e1400005e1400005e140000ae
:100288005e1400005e1400005e1400005e1400009e
:100298005e1400005e1400005e1400005e1400008e
:1002a8005e1400005e1400005e1400005e1400007e
:1002b8005e1400005e1400005e1400005e1400006e
:1002c8005e1400005e1400005e1400005e1400005e
:1002d8005e1400005e1400005e1400005e1400004e
:1002e8005e1400005e1400005e1400005e1400003e
:1002f8005e1400005e1400005e1400005e1400002e
:100308005e1400005e1400005e1400005e1400001d
:100318005e1400005e1400005e1400005e1400000d
:100328005e1400005e1400005e1400005e140000fd
:100338005e1400005e1400005e1400005e140000ed
:100348005e1400005e1400005e1400005e140000dd
:100358005e1400005e1400005e1400005e140000cd
:100368005e1400005e1400005e1400005e140000bd
:100378005e1400005e1400005e1400005e140000ad
:100388005e1400005e1400005e1400005e1400009d
:100398005e1400005e1400005e1400005e1400008d
:1003a8005e1400005e1400005e1400005e1400007d
:1003b8005e1400005e1400005e1400005e1400006d
:1003c8005e1400005e1400005e1400005e1400005d
:1003d8005e1400005e1400005e1400005e1400004d
:1003e8005e1400005e1400005e1400005e1400003d
:0803f8005e1400005e14000019
:020000040000fa
:1025b800506c000065610000736500002063000036
:1025c8006f6e0000666900006775000072650000a4
:1025d8002074000068650000206600006f6c000031
:1025e8006c6f0000776900006e67000020700000c3
:1025f80061720000616d0000657400006572000082
:10260800206f00006620000074680000652000004c
:102618006465000076690000636500003a0a0000fe
:10262800003e000043680000616e00006e65000017
:102638006c730000207400006f20000053610000dc
:102648006d7000006c6500002c0a00003e4600001a
:102658007265000071750000656e00006379000006
:102668002c0a00003e4e0000756d000062650000f7
:10267800722000006f66000020530000616d0000aa
:10268800706c0000657300002c0a00003e560000c4
:102698006972000074750000616c0000204300003e
:1026a800686100006e6e0000656c00002c0a000076
:1026b8003e42000069640000697200006563000022
:1026c800746900006f6e0000616c00002043000018
:1026d800686100006e6e0000656c00002c0a000046
:1026e800007b000022410000322200003a25000051
:1026f800642c00002022000041330000223a000030
:10270800256400002c200000224100003422000033
:102718003a250000642c000020220000413500000a
:10272800223a0000256400002c200000224400000a
:10273800362200003a250000642c00002022000008
:1027480044370000223a0000256400002c200000d5
:1027580022440000422200003a250000642c0000b8
:102768002022000044560000223a000025640000a0
:102778007d0000007b220000662200003a25000050
:10278800647d0000007b0000226e0000223a0000f9
:10279800256400007d0000007b22000076220000f6
:1027a8003a250000647d0000007b000022620000e2
:0c27b800223a0000256400007d000000b3
:020000040000fa
:1027c4007008000004000000020000000000000087
:1027d40000000000780800000c0000000200000067
:1027e400686a6c00747a4c00006343006e5b0000fe
:1027f4004a08000026000000020000000a00080049
:102804000a101000106469006f7578005870000099
:1028140030313200333435003637380039616200e4
:10282400636465006641420043444500460000007d
:10283400000800004a0000000200000000004100ff
:1028440029211c0019171600151413001212110067
:102854001111100010100f000f0f0f000e0e0e00bc
:102864000e0e0e000e0d0d000d0d0d000d3031007d
:10287400323334003536370038396100626364001e
:102884006566670068696a006b6c6d006e6f700046
:102894007172730074757600777879007a0000009d
:1028a40074080000040000000200000000000000a2
:0828b40000000000000000001c
:020000040000fa
:0428bc000000fe001a
:00000001FF
